:100000000C94D9370C94F8370C94F8370C94F837D3
:100010000C94F8370C94F8370C94A9490C94924935
:100020000C94C9490C9443490C94F8370C94F83754
:100030000C94F8370C94F8370C94F8370C94F83784
:100040000C9470470C94F8370C94234A0C94324A61
:100050000C94F8370C9401740C9433740C94F837A6
:100060000C94F8370C94F8370C94F8370C94F83754
:100070000C943F480C94F8370C94F8370C94F837EC
:100080000C947A740C94AC740C94F8370C947671CC
:100090000C94F83700000000000000000000000091
:1000A0000000000000000000000000000000000050
:1000B0000000000000000000000080007070383C6C
:1000C0001C1C1C1C1C1C1C1C1C1C1C1C1C1C1C1C70
:1000D0001C1C1C1C1C1C1C1C1C1C1C1C1C1C1C1C60
:1000E0001C1C1C1C1C1C1C1C1C1C1C1C1C1C1C1C50
:1000F0001C1C1C1C1C1C1C1C1C1C1C1C1C7CF8F030
:1001000000000000000000000000000000000000EF
:1001100000000000000000000000000000000000DF
:10012000000000000000000000000000008080804F
:10013000C0E0E070381C0C06030100000000000065
:1001400000000000000000000000000000000000AF
:10015000000000000000000000000000000000009F
:10016000000000000000000000000000000000008F
:100170000000000000000000000000000000010F6F
:100180007F400000000000000000000000000000B0
:10019000000000000000000000000000000000005F
:1001A000000080C0E0F0383C1C0E0E07070303037C
:1001B000010100000000000000000000000000003D
:1001C000000000000000000000000000000000002F
:1001D000000000000000000000000000000000001F
:1001E000000000000000000000000000000000000F
:1001F00000000000000000000000000000000000FF
:1002000000FEFE00000000000000000000000000F2
:1002100000000000000000000000000000000000DE
:10022000C0E0FF7F030000000000000000000000AD
:10023000000000000000000000C0C08000000000BE
:1002400000000000000000000000000000000000AE
:10025000000000000000000000000000000000009E
:10026000000000000000000000000000000000008E
:10027000000000000000C0C0C0000000000000003E
:100280000001FFFE00000000000000000000000070
:10029000000000000000000000000000000000005E
:1002A0000103070F0E1C181818100000F0F0C00012
:1002B00000000000000000000080E7FF7F00606099
:1002C000606060606060606040404040404040402E
:1002D000404040404040404040404040404040401E
:1002E000400000000000000000F0F0C080000000AE
:1002F00000000000000000C3FFFF0060606060704D
:1003000070383F1F000000000000000000000000E7
:1003100000000000000000000000000000000000DD
:1003200000000000000000000000000000030707BC
:100330000E0E1C1C1C1C0C0E0E07030100000000FE
:1003400000000000000000000000000000000000AD
:10035000000000000000000000000000000000009D
:10036000000000000000000000000103070F0E1C49
:100370001C1C1C1C0E0E07070100000000000000E2
:10038000000000000000000000000000000000006D
:10039000000000000000000000000000000000005D
:1003A000000000000000000000000000000000004D
:1003B000000000000000000000000000000000003D
:1005A0000000C0C03030FCFC0F0F03030303030343
:1005B00003030303C3C333333333333333333F3F93
:1005C0003333C3C3C3C3C3C3C3C3C3C3C3C3C3C31B
:1005D000C3C3FFFFC3C3C3C3C3C3C3C3C3C3C3C373
:1005E000C3C3C3C3C3C3C3C3C3C3FFFFC3C3C3C363
:1005F000C3C3C3C3C3C3C3C3C3C3C3C3C3C3C3C3CB
:10060000C3C333330F0FFCFC0000000000000000E8
:1006100000000000000000000000000000000000DA
:10062000FCFCFFFF0C0C03030000000000000000B6
:10063000F0F00F0F00000000000000000000F0F0DC
:100640000C0C03030000000000000000000000008C
:10065000000000000000000000000000000000009A
:10066000000000000000000000000000000000008A
:10067000000000000000000000000000000000007A
:10068000FFFF00000000FFFF00000000000000006E
:10069000000000000000000000000000000000005A
:1006A000FFFFFFFF00000000000000000000FCFC56
:1006B00003030000000000000000C0C03F3F000036
:1006C000000000000000000000000000000000002A
:1006D000000000000000000000000000000000001A
:1006E000000000000000000000000000000000000A
:1006F00000000000000000000000000000000000FA
:10070000FFFF00000000FFFF0000000000000000ED
:1007100000000000000000000000000000000000D9
:10072000FFFFFFFF000000000000000000003F3F4F
:10073000C0C000000000000000000303FCFC00003B
:1007400000000000000000000000000000000000A9
:100750000000000000000000000000000000000099
:100760000000000000000000000000000000000089
:100770000000000000000000000000000000000079
:10078000FFFF00000000FFFF00000000000000006D
:100790000000000000000000000000000000000059
:1007A0003F3FFFFF3030C0C00000000000000000ED
:1007B0000F0FF0F0000000000000000000000F0F1D
:1007C0003030C0C000000000000000000000000049
:1007D0000000000000000000000000000000000019
:1007E0000000000000000000000000000000000009
:1007F00000000000000000000000000000000000F9
:10080000FFFF00000000FFFF0000000000000000EC
:1008100000000000000000000000000000000000D8
:10082000000003030C0C3F3FF0F0C0C0C0C0C0C0CC
:10083000C0C0C0C0C3C3CCCCCCCCCCCCCCCCFCFCDA
:10084000CCCCC3C3C3C3C3C3C3C3C3C3C3C3C3C366
:10085000C3C3FFFFC3C3C3C3C3C3C3C3C3C3C3C3F0
:10086000C3C3C3C3C3C3C3C3C3C3FFFFC3C3C3C3E0
:10087000C3C3C3C3C3C3C3C3C3C3C3C3C3C3C3C348
:10088000C3C3CCCCF0F03F3F0000000000000000EC
:100890000000000000000000000000000000000058
:1008A0000000000000000000000000000000000048
:1008B0000000000000000000000000000000000038
:1008C000000000000000C0C0F0F0FCFCFFFF3C3C5A
:1008D0000000000000000000000000000000000018
:1008E0000000000000000000000000000000000008
:1008F00000000000000000000000000000000000F8
:1009000000000000000000000000000000000000E7
:1009100000000000000000000000000000000000D7
:1009200000000000000000000000000000000000C7
:100930000000000000000000000000000000C0C037
:10094000F0F0FCFCFFFF3F3F0F0F0303000000002F
:100950000000000000000000000000000000000097
:100960000000000000000000000000000000000087
:100970000000000000000000000000000000000077
:100980000000000000000000000000000000000067
:100990000000000000000000000000000000000057
:1009A0000000C0C03030FCFC0F0F0303030303033F
:1009B00003030303C3C333333333333333333F3F8F
:1009C0003333C3C3C3C3C3C3C3C3C3C3C3C3C3C317
:1009D000C3C3FFFFC3C3C3C3C3C3C3C3C3C3C3C36F
:1009E000C3C3C3C3C3C3C3C3C3C3FFFFC3C3C3C35F
:1009F000C3C3C3C3C3C3C3C3C3C3C3C3C3C3C3C3C7
:100A0000C3C333330F0FFCFC0000000000000000E4
:100A100000000000000000000000000000000000D6
:100A2000FCFCFFFF0C0C03030000000000000000B2
:100A3000F0F00F0F00000000000000000000F0F0D8
:100A40000C0C030300000000000000000000000088
:100A50000000000000000000000000000000000096
:100A60000000000000000000000000000000000086
:100A70000000000000000000000000000000000076
:100A8000FFFF00000000FFFF00000000000000006A
:100A90000000000000000000000000000000000056
:100AA000FFFFFFFF00000000000000000000FCFC52
:100AB00003030000000000000000C0C03F3F000032
:100AC0000000000000000000000000000000000026
:100AD0000000000000000000000000000000000016
:100AE0000000000000000000000000000000000006
:100AF00000000000000000000000000000000000F6
:100B0000FFFF00000000FFFF0000000000000000E9
:100B100000000000000000000000000000000000D5
:100B2000FFFFFFFF000000000000000000003F3F4B
:100B3000C0C000000000000000000303FCFC000037
:100B400000000000000000000000000000000000A5
:100B50000000000000000000000000000000000095
:100B60000000000000000000000000000000000085
:100B70000000000000000000000000000000000075
:100B8000FFFF00000000FFFF000000000000000069
:100B90000000000000000000000000000000000055
:100BA0003F3FFFFF3030C0C00000000000000000E9
:100BB0000F0FF0F0000000000000000000000F0F19
:100BC0003030C0C000000000000000000000000045
:100BD0000000000000000000000000000000000015
:100BE0000000000000000000000000000000000005
:100BF00000000000000000000000000000000000F5
:100C0000FFFF00000000FFFF0000000000000000E8
:100C100000000000000000000000000000000000D4
:100C2000000003030C0C3F3FF0F0C0C0C0C0C0C0C8
:100C3000C0C0C0C0C3C3CCCCCCCCCCCCCCCCFCFCD6
:100C4000CCCCC3C3C3C3C3C3C3C3C3C3C3C3C3C362
:100C5000C3C3FFFFC3C3C3C3C3C3C3C3C3C3C3C3EC
:100C6000C3C3C3C3C3C3C3C3C3C3FFFFC3C3C3C3DC
:100C7000C3C3C3C3C3C3C3C3C3C3C3C3C3C3C3C344
:100C8000C3C3CCCCF0F03F3F0000000000000000E8
:100C90000000000000000000000000000000000054
:100CA0000000000000000000000000000000000044
:100CB0000000000000000000000080007070383C60
:100CC0001C1C1C1C1C1C1C1C1C1C1C1C1C1C1C1C64
:100CD0001C1C1C1C1C1C1C1C1C1C1C1C1C1C1C1C54
:100CE0001C1C1C1C1C1C1C1C1C1C1C1C1C1C1C1C44
:100CF0001C1C1C1C1C1C1C1C1C1C1C1C1C7CF8F024
:100D000000000000000000000000000000000000E3
:100D100000000000000000000000000000000000D3
:100D20000000000000000000000000000080808043
:100D3000C0E0E070381C0C06030100000000000059
:100D400000000000000000000000000000000000A3
:100D50000000000000000000000000000000000093
:100D60000000000000000000000000000000000083
:100D70000000000000000000000000000000010F63
:100D80007F400000000000000000000000000000A4
:100D90000000000000000000000000000000000053
:100DA000000080C0E0F0383C1C0E0E070703030370
:100DB0000101000000000000000000000000000031
:100DC0000000000000000000000000000000000023
:100DD0000000000000000000000000000000000013
:100DE0000000000000000000000000000000000003
:100DF00000000000000000000000000000000000F3
:100E000000FEFE00000000000000000000000000E6
:100E100000000000000000000000000000000000D2
:100E2000C0E0FF7F030000000000000000000000A1
:100E3000000000000000000000C0C08000000000B2
:100E400000000000000000000000000000000000A2
:100E50000000000000000000000000000000000092
:100E60000000000000000000000000000000000082
:100E7000000000000000C0C0C00000000000000032
:100E80000001FFFE00000000000000000000000064
:100E90000000000000000000000000000000000052
:100EA0000103070F0E1C181818100000F0F0C00006
:100EB00000000000000000000080E7FF7F0060608D
:100EC0006060606060606060404040404040404022
:100ED0004040404040404040404040404040404012
:100EE000400000000000000000F0F0C080000000A2
:100EF00000000000000000C3FFFF00606060607041
:100F000070383F1F000000000000000000000000DB
:100F100000000000000000000000000000000000D1
:100F200000000000000000000000000000030707B0
:100F30000E0E1C1C1C1C0C0E0E07030100000000F2
:100F400000000000000000000000000000000000A1
:100F50000000000000000000000000000000000091
:100F6000000000000000000000000103070F0E1C3D
:100F70001C1C1C1C0E0E07070100000000000000D6
:100F80000000000000000000000000000000000061
:100F90000000000000000000000000000000000051
:100FA0000000000000000000000000000000000041
:100FB0000000000000000000000000000000000031
:100FC0000000000000000000000000000000000021
:100FD0000000000000000000000000000000000011
:100FE0000000000000000000000000000000000001
:100FF00000000000000000000000000000000000F1
:1010000000000000000000000000000000000000E0
:1010100000000000000000000000000000000000D0
:1010200000000000000000000000000000000000C0
:1010300000000000000000000000000000000000B0
:1010400000000000000000000000000000000000A0
:101050000000000000000000000000000000000090
:101060000000000000000000000000000000000080
:101070000000000000000000000000000000000070
:101080000000000000000000000000000000000060
:10109000000000000000002060F8F0E0C080000CBC
:1010A0001C181818383030F0F0F0E0E060E0E0E0B4
:1010B000E0E0C0C0C0C0C080808080800000000030
:1010C00000000000000000000000FFFFFFCFDFBEB7
:1010D000FCF8F0E0C080000707070707F0F0F0F029
:1010E000F0E01F1F3F3F3FC1C1C1C3C3FFFFFF006F
:1010F00000000000000000000000FFFFFF0F0F1FB6
:101100001F1FE1E3E7FFFF3E7EF8F0E0C18101032E
:1011100003037CFCFCF8F8070F0F0F0FFFFFFF0025
:1011200000000000000000000000FFFFFF060606B0
:101130000E0E0F0F0F1F1F181838393B3F3F3F3E51
:101140007CF8F0E0C08000071F3E3E7EFFFFFF00FE
:1011500000000000000000000000FFFFFF00000092
:10116000000000000000000000000000000000007F
:1011700000000103070F1F3EFCF8F0F0C1810100E1
:10118000000000000000000000007FFF7F00000062
:10119000000000000000000000000000000000004F
:1011A000000000000000000000000103070F1F1EE8
:1011B0000C0000000000000000000000000080C0E3
:1011C000E0F0F8783C3C1E1E0E0F0F0F0F0F0F0EB5
:1011D0001E1E3C3C78F8F0E0C080000000000000DB
:1011E000000000000000000000000000F8FEFF1FEB
:1011F00007010000000000000000000000000000E7
:1012000000000000000001071FFFFEF800000000C2
:101210000000000000000000000000037FFFFFF05E
:10122000800000000000000000000000000000003E
:101230000000000000000080F0FFFF7F01000000C0
:1012400000000000000000000000000000030F3F4D
:10125000FFFCF0C080000000000000000000000063
:1012600000000080C0F0FCFF3F0F03000000000002
:10127000000000000000000000000000000000006E
:101280000001071F3F7EF8F0E0800000000080E0D2
:10129000F0F87E3F1F070100000000000000000082
:1012A000000000000000000000000000000000003E
:1012B0000000000000000103071F3F7E7E3F1F0764
:1012C000030100000000000000000000000000001A
:1012D000000000000000000007070707FFFFFFFFF6
:1012E000070707070707070707070707070707078E
:1012F0000707070707070707FFFFFFFF070707079E
:101300000000000000000000000000001F3F7FFF01
:10131000F8F0F0F0F0F0F0F0F0F0F0F0F0F0F0F0C5
:10132000F0F0F0F0F0F0F0F8FF7F3F1F0000000059
:1013300000000000000000000000000000000000AD
:101340000103070F1F7FFFFFFFFFFFFFFFFFFFFFEF
:10135000FFFF7F1F0F0703010000000000000000D7
:10136000000000000000000000000000000000007D
:1013700080C0E0F0F87E3F1F0F07FFFFFFFF070F61
:101380001F3F7EF8F0E0C080000000000000000079
:10139000000000000000000000000000F8FCFEFF5C
:1013A0001F0F0301000000000080FFFFFFFF80000F
:1013B0000000000001030F1FFFFEFCF8000000000A
:1013C0000000000000000000E0E0E0E0FFFFFFFFA1
:1013D000FCFCFCFCFCFCFCFEFEFFFFFFFFFFFFFE35
:1013E000FEFCFCFCFCFCFCFCFFFFFFFFE0E0E0E09F
:1013F000000000000000000002070707FFFFFFFFDA
:10140000070707070707070707070707070707076C
:101410000707070707070707FFFFFFFF0707070281
:101420000000000000000000000000000F3F7FFFF0
:10143000F0F0F0F0F0F0F0F0F0F0F0F0F0F0F0F0AC
:10144000F0F0F0F0F0F0F0F0FF7F3F0F0000000050
:10145000000000000000000000000000000000008C
:101460000103070F1F3FFFFFFFFFFFFFFFFFFFFF0E
:10147000FFFF3F1F0F0703010000000000000000F6
:10148000000000000000000000000000000000005C
:1014900080C0E0F0F87C3F1F0F03FFFFFFFF030F4A
:1014A0001F3F7CF8F0E0C08000000000000000005A
:1014B000000000000000000000000000F0FCFEFF43
:1014C0000F070301000000000000FFFFFFFF000006
:1014D000000000000103070FFFFEFCF00000000009
:1014E000000000000000000040E0E0E0FFFFFFFF20
:1014F000FCFCFCFCFCFCFCFCFEFFFFFFFFFFFFFE16
:10150000FCFCFCFCFCFCFCFCFFFFFFFFE0E0E0401F
:1015100000000000000000000000000000000000CB
:1015200000000000000000000080F0FCFCF08000E3
:1015300000000000000000000000000000000000AB
:10154000000000000000000000000000000000009B
:10155000000000000000C0F0FEFFFFFFFFFFFFFEE5
:10156000F0C00000000000000000000000000000CB
:10157000000000000000000000000000000000006B
:10158000000000E0F8FFFFFFFFFFFFFFFFFFFFFF8E
:10159000FFFFFFF8E0000000000000000000000076
:1015A00000000000000000000000000000000080BB
:1015B000E0FCFFFFFFFFFFFFFFFFFFFFFFFFFFFF5D
:1015C000FFFFFFFFFFFFFCE08000000000000000C5
:1015D000000000000000000000000000C0F0FCFF60
:1015E000FFFFFFFFFFFFFFFFFFFF7F7F7F7FFFFF0B
:1015F000FFFFFFFFFFFFFFFFFFFCF0C00000000048
:1016000000000000000000000000183E1F1F0F0F28
:101610000F070703030101010000000000000000A4
:10162000000101030307070F0F0F1F1F3E180000E3
:1016300000000000000000000000000000000000AA
:10164000000000000000000000000000000000009A
:10165000000000000000000000000000000000008A
:10166000000000000000000000000000000000007A
:10167000000000000000000000000000000000006A
:10168000000000000000000000000000000000005A
:10169000000000000000000000000000000000004A
:1016A000000000000000000000000000000000003A
:1016B000000000000000000000000000000000002A
:1016C000000000000000000000000000000000001A
:1016D000000000000000000000000000000000000A
:1016E00000000000000000000000000000000000FA
:1016F00000000000000000000000000000000000EA
:1017000000000000000000000000000000000000D9
:1017100000000000000000000000000000000000C9
:1017200000000000000000000000000000000000B9
:1017300000000000000000000000000000000000A9
:101740000000000000000000000000000000000099
:10175000000000000000000000000080C0E0F0F089
:10176000F8F8FCFCFEFEFEFEFEFFFFFFFFFFFFFEA3
:10177000FEFEFEFEFCFCF8F8F0F0E0C08000000089
:10178000000000000000C0F0FCFEFFFFFFFFFFFFB5
:10179000FFFFFFFFFFFFFFFFFFFFFFFFFFFFFFFF59
:1017A000FFFFFFFFFFFFFFFFFFFFFFFFFFFFFEFC4D
:1017B000F0C00000E0FFFFFFFFFF0303030303038C
:1017C00003030303030303030303030303030303E9
:1017D0000303030303030303030303030303FFFFE1
:1017E000FFFFFFE007FFFFFFFFFFC0C0C0C0C0C09A
:1017F000C0C0C0C0C0C0C0C0C0C0C0C0C0C0C0C0E9
:10180000C0C0C0C0C0C0C0C0C0C0C0C0C0C0FFFF5A
:10181000FFFFFF070000030F3F7FFFFFFFFFFFFFFA
:10182000FFFFFFFFFFFFFFFFFFFFFFFFFFFFFFFFC8
:10183000FFFFFFFFFFFFFFFFFFFFFFFFFFFF7F3FF8
:101840000F030000000000000000000103070F0F5D
:101850001F1F3F3F7F7F7F7F7FFFFFFFFFFFFF7FD8
:101860007F7F7F7F3F3F1F1F0F0F07030100000097
:101870000000000000000000000000000000000068
:101880000000000000000000000000000000000058
:101890000000000000000000000000000000000048
:1018A0000000000000000000000000000000000038
:1018B0000000000000000000000000000000000028
:1018C0000000000000000000000000000000000018
:1018D0000000000000000000000000000000000008
:1018E00000000000000000000000000000000000F8
:1018F00000000000000000000000000000000000E8
:1019000000000000000000000000000000000000D7
:1019100000000000000000000000000000000000C7
:1019200000000000000000000000000000000000B7
:1019300000000000000000000000000000000000A7
:101940000000000000000000000000000000000097
:101950000000000000000000000000000000000087
:101960000000000000000000000000000000000077
:101970000000000000000000000000000000000067
:101980000000000000000000000000000000000057
:101990000000000000000000000000000000000047
:1019A000000000000000000000C0E0F8F8F8E000CF
:1019B0000000000000000000000000000000000027
:1019C0000000000000000000000000000000000017
:1019D0000000000000C0F0F8FEFFFFFFFFFFFFFF68
:1019E000FEF8C080000000000000000000000000C1
:1019F00000000000000000000000000000000000E7
:101A00000000307C7E1F1F1F1F3F9F9FDFFFFF9F37
:101A10001F1F1F3F7E70000000000000000000003C
:101A200000000000000000000000000000000000B6
:101A3000000000000000000000FFFFFFFFFFFFFFAD
:101A40000000000000000000000000000000000096
:101A50000000000000000000000000000000000086
:101A6000000000000000000000FFFFFFFFFFFFFF7D
:101A70000000000000000000000000000000000066
:101A80000000000000000000000000000000000056
:101A9000000000000000000000FFFFFFFFFFFFFF4D
:101AA0000000000000000000000000000000000036
:101AB000000000000000000000F8F8F8F0F0E0E09E
:101AC000E0E0C0C0C0808000000000000000000016
:101AD0000000000000000000000000000000000006
:101AE00000000000000000000000071FFFFFFFFFD4
:101AF000FFFFFFFFFFFFFFFFFF8F0F07060600003E
:101B000000000000000000000000000000000000D5
:101B1000000000000000000000000000010F3FFF77
:101B2000FF1F070F1F3FFFFFFFFFFFFEFCF0E0005E
:101B300000000000000000000000000000000000A5
:101B40000000000000000000000000000000000095
:101B5000000000000000000003FFFFFFFFFFFFFF89
:101B60000000000000000000000000000000000075
:101B70000000000000000000000000000000000065
:101B8000000000000000000000FFFFFFFFFFFFFF5C
:101B90000000000000000000000000000000000045
:101BA0000000000000000000000000000000000035
:101BB000000000000000000000FFFFFFFFFFFFFF2C
:101BC0000000000000000000000000000000000015
:101BD0000000000000000000000000000000000005
:101BE000000080C0C0E0E0E0000000000000000055
:101BF00000000000000000000000000000000000E5
:101C000000000000C0C0E0F0F0F8F8F8FCFEFEFFB5
:101C1000FFFFFFFFFFFBF8F8F8F0F0F0E0C0C000B6
:101C200000000000000000000000000000000000B4
:101C3000000000000101010303070F0F1F1F1F3FDA
:101C40007F7FFFFFFFE7C7870FFFFFFFFFFFFFFE5D
:101C50000000000000000000000000000000000084
:101C60000000000000000000000000000000000074
:101C7000000000000001010000FFFFFFFFFFFFFF69
:101C80000000000000000000000000000000000054
:101C90000000000000000000000000000000000044
:101CA000000000000000000000FFFFFFFFFFFFFF3B
:101CB0000000000000000000000000000000000024
:101CC0000000000000000000000000000000000014
:101CD000000000000000000000FFFFFFFFFFFFFF0B
:101CE00000000000000000000000000000000000F4
:101CF00000000000000000000000000000000000E4
:101D000000000000000000000000000000000000D3
:101D100000000000000000000000000000000000C3
:101D2000000000000000000000E0F8F8C00000C063
:101D3000C0C0F0F8F8FCFCFEFEFEFEFEFCF8F8C0A9
:101D40000000000000000000000000000000000093
:101D5000000000000000C0F0FEFFFFFFFFFFFFFFDC
:101D6000FFFFFFFF9F8F070301FFFFFFFFFFFFFF45
:101D70000000000000000000000000000000000063
:101D800000000000E0F8FF7F7F3F3F3F3F3F1F1F05
:101D90000F0F07070707070303FFFFFFFFFFFFFF03
:101DA0000000000000000000000000000000000033
:101DB0000000000000000000000000000000000023
:101DC000000000000000000000FFFFFFFFFFFFFF1A
:101DD0000000000000000000000000000000000003
:101DE00000000000000000000000000000000000F3
:101DF000000000000000000000FFFFFFFFFFFFFFEA
:101E000000000000000000000000000000000000D2
:101E100000000000000000000000000000000000C2
:101E200000000000000000000000000000000000B2
:101E300000008080C0C0E0E0E0E0E0F0F0F8F838BA
:101E40000000000000000000000000000000000092
:101E500000000000000000000000000006070FCF97
:101E6000FFFFFFFFFFFFFFFFFFFFFFFF7F1F0700D9
:101E70000000000000000000000000000000000062
:101E8000000000000000000000C0E0F0FEFEFFFFC8
:101E9000FFFF3F1F1F07071FFFFF3F0F000000004E
:101EA0000000000000000000000000000000000032
:101EB000000000000000000000FFFFFFFFFFFFFF29
:101EC000030000000000000000000000000000000F
:101ED0000000000000000000000000000000000002
:101EE000000000000000000000FFFFFFFFFFFFFFF9
:101EF00000000000000000000000000000000000E2
:101F000000000000000000000000000000000000D1
:101F1000000000000000000000FFFFFFFFFFFFFFC8
:101F200000000000000000000000000000000000B1
:101F300000000000000000000000000000000000A1
:101F40000000000000000000000000000000000091
:101F500000E0E0E0C0808000000000000000000021
:101F60000000000000000000000000000000000071
:101F700000000000000000000080C0E0E0F0F0F889
:101F8000F8F8FBFFFFFFFFFFFFFFFEFCFCF8F8F88F
:101F9000F0E0E0C0000000000000000000000000D1
:101FA0000000000000000000FEFFFFFFFFFFFFFF3A
:101FB0000FC7F7FFFF7F7F7F3F3F1F0F0F0F070701
:101FC000030101010000000000000000000000000B
:101FD0000000000000000000FFFFFFFFFFFFFFFF09
:101FE00000010101000000000000000000000000EE
:101FF00000000000000000000000000000000000E1
:102000000000000000000000FFFFFFFFFFFFFFFFD8
:1020100000000000000000000000000000000000C0
:1020200000000000000000000000000000000000B0
:1020300000000000000000007F7F7F7F7F7F7F7FA8
:102040000000000000000000000000000000000090
:102050000000000000000000000000000000000080
:102060000000000000000000000000000000000070
:102070000000000000000000000000000000000060
:102080000000000000000000000000000000000050
:10209000000000000000000000E0F8F8FCFEFEFE7A
:1020A000FEFEFCF8F8F0E0C0C0800000F8F8F88010
:1020B0000000000000000000000000000000000020
:1020C000000000000000000000FFFFFFFFFFFFFF17
:1020D00001038F9F9FFFFFFFFFFFFFFFFFFFFFFF3A
:1020E000FEF0000000000000000000000000000002
:1020F000000000000000000000FFFFFFFFFFFFFFE7
:102100000303070707070F0F1F1F1F3F3F3F3F7FB7
:102110007F7FFFF8000000000000000000000000CA
:10212000000000000000000000FFFFFFFFFFFFFFB6
:10213000000000000000000000000000000000009F
:10214000000000000000000000000000000000008F
:10215000000000000000000000FFFFFFFFFFFFFF86
:10216000000000000000000000000000000000006F
:10217000000000000000000000000000000000005F
:10218000000000000000000000000000000000004F
:10219000000000000000000000000000000000003F
:1021A000000000000000000000000000000000002F
:1021B000000000000000000000C0C0000000C000DF
:1021C000000000000000000000000000000000000F
:1021D00000000000000000000000000000000000FF
:1021E0000000206020060200000100000000000046
:1021F000000002002020000000000000000000009D
:102200000000000000000000000000000000C0F01E
:10221000C080C6E6F0F8F8F8F0C0C0C0C0C0C0008A
:102220000000006000060000000000000000000048
:10223000000000000000000000000080FCFFFFFF25
:10224000FFFFFFFFFF77773F3FFFFFFFFFFFFF012C
:10225000010000000000000000000000000000007D
:10226000000000000000000000000207030301015D
:10227000000000000000000000FFFFFFFFFFFF0064
:10228000000000000000000000000000000000004E
:10229000000000000000000000000000000000003E
:1022A000000000000000000000000000000000002E
:1022B000000000000000000000000000000000001E
:1022C000000000000000000000000000000000000E
:1022D0000000000000000000000000C0C00000007E
:1022E000800000000000000000000000000000006E
:1022F000000000008080C0C0E0F0F0F0F8F8FCEED4
:10230000E6E0E0E0ECE00001010000000000000079
:1023100001000008808000000000000000000000B4
:102320000000000001030303070F0F1F1F1F3F776B
:10233000271FFFFFFFFFFCF8E0E0E0C0C0C0C000C7
:1023400000800000180100000000000000000000F4
:10235000000000000000000000000000000000007D
:10236000000000000107070707FFFFFFFFFFFF0056
:10237000000000000000000000000000000000005D
:10238000000000000000000000000000000000004D
:102390000000000000000000007F7F7F7F7F7F0043
:1023A000000000000000000000000000000000002D
:1023B0000000000000000000000080C080800000DD
:1023C000000000000000000000000000000000000D
:1023D00000000000000000000000000000000000FD
:1023E0000000000000000000000000033FFFFFFFAE
:1023F000FFFFFEFEFEDCCC880000C0000000C080B5
:1024000000000000000000000000000000000000CC
:102410000000000000000000000000000001070FA5
:10242000E3F9FFFFFFFF7F1F06020000000001002D
:1024300000020602606000000000000000000000D2
:10244000000000000000000000000000000000008C
:10245000071FFFFFFFFFFCF8E0E0E0C0C0C0C000C6
:1024600000006060040400000000000000000000A4
:10247000000000000000000000000000000000005C
:10248000000000000107070707FFFFFFFFFFFF0134
:10249000000000000000000000000000000000003C
:1024A000000000000000000000000000000000002C
:1024B0000000000000000000007F7F7F7F7F7F0022
:1024C000000000000000000000000000000000000C
:1024D00000000000000000000000000000000000FC
:1024E000000000000000000080F0FCFEFFFEFCE0A9
:1024F000800000000000000000000000000000005C
:1025000000000000000000000000000000000000CB
:102510000000000080C8DCEFEFFFFFFFFFFFFF07B8
:102520000F0F180000000000000000000000000075
:10253000000000000000000000000000000000009B
:10254000E0F8FEFFFFFF7F1F0F07070303030300F1
:102550000001001018000000000000000000000052
:10256000000000000000000000000000000000006B
:10257000073FFFFFFFFFFCF8E0C0C0C0C0C0C000C5
:1025800080800030300100000000000000000000EA
:10259000000000000000000000000000000000003B
:1025A000000000010107070F0FFFFFFFFFFFFF0003
:1025B0000101000000000000000000000000000019
:1025C000000000000000000000000000000000000B
:1025D000000000000000000000FFFFFFFFFFFF0001
:1025E00000000000000000000000000000000000EB
:1025F00000000000000000000000000000000000DB
:1026000000000000000000000000000000000000CA
:1026100000000000000000000000008080C080007A
:1026200000000000000000000000000000000000AA
:102630000000000080C0C0E0E0F0F0F0F0F0F0E05A
:10264000E8E8DCFCFEFEFFFFFFFFFFFF0F030000DA
:10265000000000000000000000000000000000007A
:10266000E0F8FEFFFFFF7F1F0F0707030303070FBD
:102670000F1F3F1F1FC703011F1F0701000000009E
:10268000000000000000000000000000000000004A
:102690000F3FFFFFFFFFFCF0E0C0C0C0C0C0C000A4
:1026A0000000C0400000000000000000000000002A
:1026B000000000000000000000000000000000001A
:1026C000000000010107070F0FFFFFFFFFFFFF00E2
:1026D00000000000000000000000000000000000FA
:1026E00000000000000000000000000000000000EA
:1026F000000000000000000000FFFFFFFFFFFF00E0
:1027000000000000000000000000000000000000C9
:1027100000000000000000000000000000000000B9
:1027200000000000000000000000000000000000A9
:102730000000000000000000000000000000000099
:102740000000000000000000000000000000000089
:102750000000000080C0C0E0E0F0F0F0F0F0F0E039
:10276000E0E0C0C0800000000000000000000000A9
:102770000000000000000000000000000000000059
:10278000E0F8FEFFFFFF7F1F0F0707030303070F9C
:102790000F1FFFFFFFFEFEF8FEFCFCF8F0F0E0E08C
:1027A000E0E0808000000000000000000000000069
:1027B000073FFFFFFFFFFCF8E0C0C0C0C0C0C00083
:1027C0008000073727070707773F3F3F1F1F0F0787
:1027D00007070303000000000000000000000000E5
:1027E000000000010107070F0FFFFFFFFFFFFF01C0
:1027F00001010000000000000000000000000000D7
:1028000000000000000000000000000000000000C8
:10281000000000000000000000FFFFFFFFFFFF00BE
:1028200000000000000000000000000000000000A8
:102830000000000000000000000000000000000098
:102840000000000000000000000000000000000088
:102850000000000000000000000000000000000078
:102860000000000000000000000000000000000068
:102870000000000080C0C0E0E0F0F0F0F0F0F0E018
:10288000E0C0C0C000000000000000000000000028
:102890000000000000000000000000000000000038
:1028A000F0F8FEFFFFFF3F0F0F0707030303070FBB
:1028B0000F7FFFFFFFFEFEE00000000000000000B1
:1028C0000000000000000000000000000000000008
:1028D000071FFFFFFFFFFCF0E0E0E0C0C0C0C0E06A
:1028E000F0FCFFFFFFFFFFC7F0F00000000000005A
:1028F00000000000000000000000000000000000D8
:10290000000000000107070707FFFFFFFFFFFF00B0
:1029100030333F3F7F7FFFFFFFFFFFFCF0000000F1
:1029200000000000000000000000000000000000A7
:102930000000000000000000007F7F7F7F7F7F009D
:102940000000000000000000010101010100000082
:102950000000000000000000000000000000000077
:102960000000000000000000000000000000000067
:102970000000000000000000000000000000000057
:102980000000000000000000000000000000000047
:10299000000000000080C0C0C0C0C0C0C0C0C0C037
:1029A000C0C0800000000000000000000000000027
:1029B0000000000000000000000000000000000017
:1029C000C0E0FCFEFFFFFF3F1F1F0F0F0F0F0F1F89
:1029D0001F3FFFFFFFFCF8E00000000000000000C8
:1029E00000000000000000000000000000000000E7
:1029F0001F7FFFFFFFFFF8E0C0808000000080C065
:102A0000C0E0FFFFFFFFFF7F0000000000000000AC
:102A100000000000000000000000000000000000B6
:102A20000000010307FFFFFFFFFFFF7CF0E0FFFF57
:102A3000FFFFFFFFE7F17010000000000000000042
:102A40000000000000000000000000000000000086
:102A50000000000000FFFFFFFFFFFF0003071FFF54
:102A6000FFFF3F1F07000000000000000000000003
:102A70000000000000000000000000000000000056
:102A80000000000000000000000000000000000046
:102A90000000000000000000000000000000000036
:102AA0000000000000000000000000000000000026
:102AB000000000000000000000C0C0000000C000D6
:102AC0000000000000000000000000000000000006
:102AD00000000000000000000000000000000000F6
:102AE0000000202020020200000000000000000082
:102AF000000006022020000000000000000000008E
:102B000000000000000000000000000000000000C5
:102B1000000006060000000000C0C0C0C0C0C0E049
:102B2000F0F0F8F8F4C6C080F0F0C000000000003B
:102B30000000000000000000000000000000000095
:102B4000000000000000000001FFFFFFFFFFFF0F7B
:102B50003F3F777FFFFFFFFFFFFFFFFFF080000099
:102B60000000000000000000000000000000000065
:102B7000000000000000000000FFFFFFFFFFFF005B
:102B80000000000000000000010101030307020033
:102B90000000000000000000000000000000000035
:102BA0000000000000000000000000000000000025
:102BB0000000000000000000000000000000000015
:102BC0000000000000000000000000000000000005
:102BD0000000000000000000000000C0C000000075
:102BE0008000000000000000000000000000000065
:102BF00000000000000000000000000000000000D5
:102C0000000080800C0000010000000000000001B6
:102C10000100E0ECE0E0E0E4EEFCF8F8F0F0F0E0D9
:102C2000E0C0808000000000000000000000000004
:102C3000000001181800808000C0C0C0C0C0E0E0E3
:102C4000E0FCFFFFFFFF7F67773F1F1F1F0F0F078E
:102C50000703030100000000000000000000000066
:102C6000000000000000000000FFFFFFFFFFFF0763
:102C7000070707030000000000000000000000003C
:102C80000000000000000000000000000000000044
:102C90000000000000000000007F7F7F7F7F7F003A
:102CA0000000000000000000000000000000000024
:102CB0000000000000000000000000000000000014
:102CC0000000000000000000000000000000000004
:102CD00000000000000000000000008080C08000B4
:102CE00000000000000000000000000000000000E4
:102CF000000000000000000000C0800000C0C00014
:102D00000888DCFCFEFEFFFFFFFFFFFF0F03000053
:102D100000000000000000000000000000000000B3
:102D200000006060200602000001000000000006B4
:102D30000F1FFFFFFFFFFFF91F1F0701000000002B
:102D40000000000000000000000000000000000083
:102D5000000004060040000000C0C0C0C0C0C0E0C9
:102D6000E0F8FFFFFFFF7F3F0000000000000000D1
:102D70000000000000000000000000000000000053
:102D8000000000000000000000FFFFFFFFFFFF0F3A
:102D90000F0F07030100000000000000000000000A
:102DA0000000000000000000000000000000000023
:102DB000000000000000000000FFFFFFFFFFFF0019
:102DC0000000000000000000000000000000000003
:102DD00000000000000000000000000000000000F3
:102DE000000000000000000080F0FCFEFFFEFCE0A0
:102DF0008000000000000000000000000000000053
:102E000000000000000000000000000000000000C2
:102E10000000000000081C0F0FFFFFFFFFFFFFE78F
:102E2000EFEFD8C0800000000000000000000000AC
:102E30000000000000000000000000000000000092
:102E40000000001018000101000303030303070F33
:102E50000F1FFFFFFFFEFEF8000000000000000053
:102E60000000000000000000000000000000000062
:102E7000000001113000008080C0C0C0C0C0C0E0B0
:102E8000E0F8FFFFFFFF7F3F0000000000000000B0
:102E90000000000000000000000000000000000032
:102EA000000000000000010101FFFFFFFFFFFF0F16
:102EB0000F0F0703010000000000000000000000E9
:102EC0000000000000000000000000000000000002
:102ED000000000000000000000FFFFFFFFFFFF00F8
:102EE00000000000000000000000000000000000E2
:102EF0000000000000000000000080C08080000092
:102F000000000000000000000000000000000000C1
:102F100000000000000000000000000000000000B1
:102F20000000000000000000000000033FFFFFFF62
:102F3000FFFFFEFEFEDCCCE8E8F0F0F0F0F0F0E0A1
:102F4000E0E0C0C0800000000000000000000000C1
:102F50000000000000000000000000000001071F4A
:102F60000301C7CF1F3F1F1F0F0707030303070FEF
:102F70000F1FFFFFFFFEFEF8000000000000000032
:102F80000000000000000000000000000000000041
:102F90000000000C00C0400000C0C0C0C0C0C0E0C5
:102FA000E0F8FFFFFFFF7F3F00000000000000008F
:102FB0000000000000000000000000000000000011
:102FC000000000000000000000FFFFFFFFFFFF0FF8
:102FD0000F0F0703010000000000000000000000C8
:102FE00000000000000000000000000000000000E1
:102FF000000000000000000000FFFFFFFFFFFF00D7
:1030000000000000000000000000000000000000C0
:1030100000000000000000000000000000000000B0
:1030200000000000000000000000000000000000A0
:103030000000000000000000000000000000000090
:103040000000000000000000000000000000000080
:103050000000000080C0C0E0E0F0F0F0F0F0F0E030
:10306000E0C0C0C000000000000000000000000040
:10307000000000008080C0C0E0F0F0F0F8F8FCEE46
:10308000E6F8FEFFFFFF7F1F0F0707030303070F8D
:103090000F7FFFFFFFFEFEE00000000000000000C9
:1030A0000000000001030303070F0F1F1F1F3F77DE
:1030B000270707072707000000C0C0C0C0C0E0E026
:1030C000E0FCFFFFFFFF7F070000000000000000A2
:1030D00000000000000000000000000000000000F0
:1030E000000000000000000000FFFFFFFFFFFF07DF
:1030F00007070703000000000000000000000000B8
:1031000000000000000000000000000000000000BF
:103110000000000000000000007F7F7F7F7F7F00B5
:10312000000000000000000000000000000000009F
:10313000000000000000000000000000000000008F
:10314000000000000000000000000000000000007F
:10315000000000000000000000000000000000006F
:10316000000000000000000000000000000000005F
:103170000000000080C0C0E0E0F0F0F0F0F0F0E00F
:10318000E0C0C0C00000000000000000000000001F
:10319000000000000000000000000000000000002F
:1031A000E0F8FEFFFFFF7F1F0F0707030303070F72
:1031B0000F7FFFFFFFFEFEE00000000000000000A8
:1031C0000000000000000000000000000000E0F02F
:1031D000C79FFFFFFFFFFCF8E0C0C0C0C0C0E0E039
:1031E000E0FCFFFFFFFF7F07000000000000000081
:1031F0000000000000000000000000C0FCFFFFFF16
:10320000FFFF7F7F7F3F333100FFFFFFFFFFFF079F
:103210000707070300000000000000000000000096
:103220000000000000000000000000030101010197
:103230000000000000000000007F7F7F7F7F7F0094
:10324000000000000000000000000000000000007E
:10325000000000000000000000000000000000006E
:10326000000000000000000000000000000000005E
:10327000000000000000000000000000000000004E
:10328000000000000000000000000000000000003E
:10329000000000000080C0C0C0C0C0C0C0C0C0C02E
:1032A000C0C080000000000000000000000000001E
:1032B000000000000000000000000000000000000E
:1032C000C0F0FCFEFFFF7F3F0F0F0F0F0F0F0F0F20
:1032D0001F7FFFFFFEFCF8C00000000000000000A0
:1032E00000000000000000000000000000000000DE
:1032F0001F7FFFFFFFFFF8E0C0808000000080C05C
:10330000E0F8FFFFFFFFFF1F0000000000000000CB
:1033100000000000000000000000000000000000AD
:103320000018F1F3E7FFFFFFFFFFFFF0F63CFFFFA0
:10333000FFFFFFFF0301000000000000000000008D
:10334000000000000000000000000000000000007D
:1033500000000001073F7FFF7F3F0F0100007F7FDC
:103360007F7F7F7F00000000000000000000000061
:10337000000000000000000000000000000000004D
:10338000000080C0E0F8FCFCFCFEFEFEFFFFFFFF3B
:10339000FFFFFEFEFCFCFCF8E0C080000000000027
:1033A000000000000000000000000000000000001D
:1033B00000F8FFFFFFFFFFFFFF0703010000000011
:1033C000000003071FFFFFFFFFFFFFFF00000000DB
:1033D00000000000000000000000000000000000ED
:1033E00000FFFFFFFFFFFFFFFF00000000000000E5
:1033F0000000000000FFFFFFFFFFFFFF00000000D4
:103400000000000000000000000000073F7FFEFCFD
:10341000FCFFFFFFFFFFFFFFFFFCFEFE3F0F07006B
:103420000000000000FFFFFFFFFFFFFF00000000A3
:103430000000000000000000000000000000010F7C
:103440001F7FFFFFFFFFFFFF7F0F03010000000052
:103450000000000000FFFFFFFFFFFFFF0000000073
:10346000000000000000000000000000000000005C
:103470000000030707070300000000000000000031
:103480000000000000FFFFFFFFFFFFFF0000000043
:10349000000000000000000000000000000080E0CC
:1034A000F0F8FCFCFCFEFEFFFFFFFFFFFFFEFEFC52
:1034B000FCFCF8F0C08000000000000000000000EC
:1034C000000000000000000000000000F8FFFFFF07
:1034D000FFFFFFFF1F030100000000000001071FA6
:1034E000FFFFFFFFFFFFFF000000000000000000E3
:1034F000000000000000000000000000FFFFFFFFD0
:10350000FFFFFFFF000000000000808000000000BF
:10351000FFFFFFFFFFFFFF000000008080000000B2
:10352000000000000000000000000000FFFFFFFF9F
:10353000FFFFFFFF000000000000031F7FFEFCFCF8
:10354000FFFFFFFFFFFFFFFCFCFE7F1F0F000000DF
:10355000000000000000000000000000FFFFFFFF6F
:10356000FFFFFFFF00000000000000000000071F39
:103570003FFFFFFFFFFFFF1F0703000000000000E9
:103580000000000000000000000000007F7F7F7F3F
:103590007F7F7F7F0000000000000000000000002F
:1035A0000001070707010000000000000000000004
:1035B000000000000000000000000000000000FC0F
:1035C000FEFE000002FEFEF8E00000000000000029
:1035D00000000000000000000000000000000000EB
:1035E00000000000000000000000000080F0FFFF6D
:1035F000FFFF000000FFFFFFFFF8C0000000000019
:1036000000000000000000000000000000000000BA
:103610000000000000000000000000E0FFFFFFFFCE
:10362000FFFF000000FFFFFFFFFFFFFE00000000A4
:103630001C7EFCFCF8F8F0F0E0E0E0E0E0C0C00048
:10364000000000000000000000F8FFFFFFFFFFFF88
:10365000FFFF000000FFFFFFFFFFFFFFFFF8C000BC
:103660000000073F7F7F1F1F3F7FFFFEF8F0E00055
:1036700000000000000000F0FEFFFFFFFFFFFFFF63
:10368000FFFF000000FFFFFFFFFFFFFFFFFFFFF056
:103690008000000000000000000001FFFFFFFFFFAE
:1036A0000000000000C0FFFFFFFFFFFFFFFFFFFF64
:1036B000FFFF000000FFFFFFFFFFFFFFFFFFFFFF17
:1036C000FFFC000000000000000000FFFFFFFFFF04
:1036D00000000000000000000000000000000000EA
:1036E000000000000000000000000000E0FCFEFE02
:1036F0000000FEFEFEC00000000000000000000010
:1037000000000000000000000000000000000000B9
:1037100000000000000000000000C0F8FFFFFFFFF5
:103720000000FFFFFFFFFEF00000000000000000AF
:10373000000000000000C0C0E0E0E0E0F0F0F0F8C1
:10374000F8FCFC3E0C00000000FEFFFFFFFFFF3F07
:103750000000FFFFFFFFFFFFFCE000000000000093
:10376000000000000000E0F0F8FEFF7F3F1F1FFF99
:103770007F1F00000000E0FCFFFFFFFFFFFFFF00D6
:103780000000FFFFFFFFFFFFFFFFFFF00000000052
:103790000000000000FFFFFFFFFF0100000000002D
:1037A00000000000C0FFFFFFFFFFFFFFFFFFFF0063
:1037B00000003FFFFFFFFFFFFFFFFFFFFCE00000F7
:1037C0000000000000FFFFFFFFFF000000000000FE
:1037D0000000F0FEFFFFFFFFFFFFFFFFFFFFFF0006
:1037E000000000FFFFFFFFFFFFFFFFFFFFFFFFC025
:1037F000000000000018F8F8F8F0F0E0E0E0E0C0A9
:10380000C0C08080000000000000000080F0FEFECC
:10381000FE00FEFEFEE000000000000000000000D0
:10382000000000000000030F3FFFFFFFFFFFFFFF4E
:10383000FFFFFFFFFFCF8F0F070000E0FFFFFFFF3D
:103840000300FFFFFFFFFFF8000000000000000082
:10385000000000000000000000071FFFFFFF0F0F27
:103860001F1F7FFFFFFFFFFEFEFCFFFFFFFFFFFFAD
:1038700000001FFFFFFFFFFFFEF0800000000000C0
:103880000000000000000000000000000000000038
:103890000000000001FFFFFFFFFFFFFFFFFFFFFF32
:1038A000000000FFFFFFFFFFFFFFFFF80000000028
:1038B0000000000000000000000000000000000008
:1038C0000000000000FFFFFFFFFFFFFFFFFFFF03FF
:1038D000000000FFFFFFFFFFFFFFFFFFFEF0800083
:1038E00000000000000000000000000000000000D8
:1038F0000000C0F8FFFFFFFFFFFFFFFFFFFFFF001B
:10390000000000FFFFFFFFFFFFFFFFFFFFFFFFE0E3
:10391000000000000000000000000000000000FCAB
:10392000FEFE000002FEFEF8E000000000000000C5
:1039300000008080C0C0E0E0E0E0E0F0F0F8F8389F
:1039400000000000000000000000000080F0FFFF09
:10395000FFFF000000FFFFFFFFF8C00006070FCFCA
:10396000FFFFFFFFFFFFFFFFFFFFFFFF7F1F0700BE
:103970000000000000000000000000E0FFFFFFFF6B
:10398000FFFF000000FFFFFFFFFFFFFEFEFEFFFF47
:10399000FFFF3F1F1F07071FFFFF3F0F0000000033
:1039A000000000000000000000F8FFFFFFFFFFFF25
:1039B000FFFF000000FFFFFFFFFFFFFFFFFFFFFF14
:1039C00003000000000000000000000000000000F4
:1039D00000000000000000F0FEFFFFFFFFFFFFFF00
:1039E000FFFF000000FFFFFFFFFFFFFFFFFFFFFFE4
:1039F0008000000000000000000000000000000047
:103A00000000000000C0FFFFFFFFFFFFFFFFFFFF00
:103A1000FFFF000000FFFFFFFFFFFFFFFFFFFFFFB3
:103A2000FFFC00000000000000000000000000009B
:103A30000000000000000000000000000000000086
:103A40000000E0F8F8F8E0C000000000000000FE10
:103A5000FEFEFEFEFEFEFEFEFE0000000000000078
:103A60000000000000000000000000000080C0F81E
:103A7000FEFFFFFFFFFFFFFFFFF8F0C000000003A5
:103A80003FFFFFFFFFFFFFFF0300000000000000FB
:103A90000000000000000000000000307E3F1F1FFB
:103AA0001FFFFFFFFFFFFFFFFF1F1F1F7E7C700038
:103AB0000000070F0F0703000000000000000000D7
:103AC00000000000000000000000000000000000F6
:103AD000007FFFFFFFFFFFFFFFC0C080000000006E
:103AE00000000000000000000000000000000000D6
:103AF00000000000000000000000000000000000C6
:103B000000000103070F1F3F7FFFFFFFFEFEFCF0D9
:103B100000000000000000000000000000000000A5
:103B20000000000000000000000000000000000095
:103B3000000000000000000000FFFFFFFFFFFFFF8C
:103B40000000000000000000000000000000000075
:103B5000000000000000000000000000000000FE67
:103B6000FEFEFEFEFEFEFEFEFE0000000000000067
:103B700000E0F8F8F8E0C0000000000000000000DD
:103B80000000000000000000000000000000000332
:103B90001FFFFFFFFFFFFFFF0300000080C0F8FED4
:103BA000FFFFFFFFFFFFFFFEF8F0800000000000B6
:103BB0000000000000000000000000000000000005
:103BC0000000070F0F0703000020707E3F1F0F0F3C
:103BD000FFFFFFFFFFFFFF0F0F1F3F7E7C00000076
:103BE00000000000000000000000000000000000D5
:103BF0000000000000000000000000000080E0E085
:103C0000FFFFFFFFFFFFFF000000000000000000BB
:103C100000000000000000000000000000000000A4
:103C20000000000000000000F0F8FCFFFFFFFFFFB5
:103C30003F1F0F070301000000000000000000000C
:103C40000000000000000000000000000000000074
:103C500000000000000000007F7F7F7F7F7F7F7F6C
:103C60000000000000000000000000000000000054
:103C700000000000000000000000FCFCFCFCFCFC5C
:103C8000FCF81818383030F0F0E0E0E060E0E0E0F8
:103C9000E0E0C0C0C0C0C0808080800000000000A4
:103CA00000000000000000000000FFFFFFC1C18312
:103CB0008383FCFCF8F8F8070707070FF0F0F0F033
:103CC000F01F1F1F3F3F3FC1C1C1C3FFFFFF0000E7
:103CD00000000000000000000000FFFFFF0F0F0FBA
:103CE0000F0FF0F0E0E0E03F3E3E3E7E81818183B9
:103CF000837C7C7CF8F8F8070F0F0FFFFFFF0000B4
:103D000000000000000000000000FFFFFF060606A4
:103D1000060E0F0F0F1F1F1C1C1C18181F3F3F3FC4
:103D20003F7070606060E0FFFFFEFEFFFFFF00007D
:103D300000000000000000000000FFFFFF00000086
:103D40000000000000000000000000000000000073
:103D50000000000000000000000000000000000063
:103D6000000000000000000000007F7F7F000000D6
:103D70000000000000000000000000000000000043
:103D80000000000000000000000000000000000033
:103D9000000000000000038003800BA00FE00FE094
:103DA00007C0038001000000000040FC7F02407A51
:103DB000404A404A404A407A7F0240FC1F1020702F
:103DC00020201FC0000007C01830200823882C685E
:103DD000301823883458282C282E282B28292828C6
:103DE0003BB82828282828282828282828283BB80D
:103DF000282828280000041014140808341602206B
:103E000041C123627E3F236241C10220341608086B
:103E10001414041000000000000000000000000066
:103E20000000000000000FE001001FE01020102043
:103E300010101008208441444084400447844844C2
:103E4000484448444488403070E0108070E040208E
:103E500040C03F00000003800440044004407F80D5
:103E600041004E00510051FF51554E156105220190
:103E700022001200120012000A000A0006000600CA
:103E800002000A00000004803E8000801C80228026
:103E900022801C8000801C80228022BE1CA000A0EA
:103EA0003E8008801480248000803C80048038801C
:103EB00004803880000000000000000000000000C6
:103EC0000000000000000000000000003FF83FF884
:103ED0003018311F311F37DF311F311F30183018B4
:103EE000301830183018301830183018311F311F82
:103EF000311F311F311F30183FF83FF8000000001C
:103F00000080008000BE008800943EA4088008BCA9
:103F1000308400B8008400B80080008000000000F9
:103F200000000000000000000000000000003C80D5
:103F300004800480388004800488388400BE3A807D
:103F400000803C8004800480388000000000000075
:103F50000000000000000000000000000000000061
:103F6000008000803EBE08A008A030A00080008035
:103F70000000000000000038007C00C600823FFE08
:103F80003FFE00023FFE3FFE0002000028282828D6
:103F9000282828282FE830181FF000000000000013
:103FA0000000000000000000000038003800380069
:103FB00038003800380038003800000000000000E9
:103FC000000044084C0C5C0E7FFF5C0E4C0C440857
:103FD00000000000000000000000001E003F003351
:103FE0000033003F001E000000000000F80704043A
:103FF000787C4080787C0404787C4080407C380465
:10400000C40738000000120012000C00000000007D
:104010000000000000000000000000000000003070
:10402000004800AC00AA004900490049004900418D
:10403000004CC0537C52544D144104A900A9004EB9
:104040000038000000000000000000000004000A2A
:104050000004000000F801FC030602020202038EC5
:10406000018C0000000000BE008800943EA4208067
:1040700020BC208400B8008400B8000000000000CC
:104080000000000000000000000000000000000030
:104090000000000000000000000000000000000020
:1040A0000000000000000000000000000000000010
:1040B00000000000007C33FF33FF007C00000000A4
:1040C00000000000000000000000003C003C000078
:1040D0000000003C003C0000000000000000020066
:1040E0001E101F9003F0027E1E1E1F9003F0027E22
:1040F000001E00100000000004780CFC0CCC3FFFF8
:104100003FFF0CCC0FCC07880000000000003000FF
:1041100038381C380E380700038001C038E038708A
:104120003838001C000000001F003FB831FC21C6D9
:1041300037E21E3E1C1C360022000000000000007A
:10414000000000000027003F001F000000000000EA
:104150000000000000000000000003F00FFC1FFE44
:1041600038072001200100000000000000000000CE
:1041700000002001200138071FFE0FFC03F00000A3
:1041800000000000000000000C980EB803E00FF8DB
:104190000FF803E00EB80C980000000000000000CB
:1041A0000180018001800FF00FF00180018001800B
:1041B000000000000000000000000000B800F8004F
:1041C0007800000000000000000000000000000077
:1041D00001800180018001800180018001800180D7
:1041E000000000000000000000000000380038005F
:1041F000380000000000000000000000000018006F
:104200001C000E000700038001C000E000700038B1
:10421000001C000E000007F81FFE1E06330331834A
:1042200030C330633033181E1FFE07F80000000053
:104230000000300C300C300E3FFF3FFF30003000EC
:10424000300000000000301C381E3C073E033703DE
:10425000338331C330E33077303E301C00000C0C28
:104260001C0E380730C330C330C330C330C339E706
:104270001F7E0E3C000003C003E003700338031CE4
:10428000030E03073FFF3FFF0300030000000C3F46
:104290001C7F38633063306330633063306338E3EE
:1042A0001FC30F8300000FC01FF039F830DC30CE81
:1042B00030C730C330C339C31F800F000000000374
:1042C0000003000330033C030F0303C300F3003F6C
:1042D000000F000300000F001FBC39FE30E730C3A1
:1042E00030C330C330E739FE1FBC0F000000003C74
:1042F000007E30E730C330C338C31CC30EC307E7AA
:1043000003FE00FC00000000000000001C701C7098
:104310001C70000000000000000000000000000011
:10432000000000009C70FC707C7000000000000029
:10433000000000000000000000C001E003F00738AA
:104340000E1C1C0E380730030000000000000000A7
:10435000066006600660066006600660066006602D
:104360000660000000000000300338071C0E0E1C21
:10437000073803F001E000C0000000000000001C4E
:10438000001E00070003378337C300E30077003EB9
:10439000001C000000000FF81FFE180733F337FB66
:1043A000361B37FB37FB360703FE01F800003800E9
:1043B0003F0007E006FC061F061F06FC07E03F0063
:1043C0003800000000003FFF3FFF30C330C330C360
:1043D00030C330E739FE1FBC0F000000000003F0BF
:1043E0000FFC1C0E380730033003300338071C0E57
:1043F0000C0C000000003FFF3FFF30033003300390
:10440000300338071C0E0FFC03F0000000003FFFD4
:104410003FFF30C330C330C330C330C330C3300379
:104420003003000000003FFF3FFF00C300C300C394
:1044300000C300C300C3000300030000000003F03A
:104440000FFC1C0E3807300330C330C330C33FC7E6
:104450003FC6000000003FFF3FFF00C000C000C09B
:1044600000C000C000C03FFF3FFF00000000000090
:104470000000300330033FFF3FFF300330030000F4
:104480000000000000000E001E0038003000300068
:104490003000300038001FFF07FF000000003FFF22
:1044A0003FFF00C001E003F007380E1C1C0E380768
:1044B0003003000000003FFF3FFF300030003000BD
:1044C00030003000300030003000000000003FFFBE
:1044D0003FFF001E007801E001E00078001E3FFF72
:1044E0003FFF000000003FFF3FFF000E003800F0DC
:1044F00003C007001C003FFF3FFF0000000003F067
:104500000FFC1C0E38073003300338071C0E0FFC5D
:1045100003F0000000003FFF3FFF018301830183A0
:104520000183018301C700FE007C0000000003F04E
:104530000FFC1C0E3807300336033E071C0E3FFCF1
:1045400033F0000000003FFF3FFF0183018303833E
:1045500007830F831DC738FE307C000000000C3C31
:104560001C7E38E730C330C330C330C339C71F8E19
:104570000F0C0000000000000003000300033FFFD9
:104580003FFF00030003000300000000000007FFDE
:104590001FFF3800300030003000300038001FFFAF
:1045A00007FF000000000007003F01F80FC03E00B9
:1045B0003E000FC001F8003F0007000000003FFF71
:1045C0003FFF1C0006000380038006001C003FFF25
:1045D0003FFF0000000030033C0F0E1C033001E0E1
:1045E00001E003300E1C3C0F30030000000000030C
:1045F000000F003C00F03FC03FC000F0003C000F47
:1046000000030000000030033C033E03330331C3CA
:1046100030E33033301F300F300300000000000063
:1046200000003FFF3FFF3003300330033003000042
:10463000000000000000000E001C0038007000E0C8
:1046400001C0038007000E001C00180000000000DD
:10465000000030033003300330033FFF3FFF000012
:10466000000000000000006000700038001C000E18
:104670000007000E001C0038007000600000C00041
:10468000C000C000C000C000C000C000C000C0002A
:10469000C000C00000000000000000000000003E5C
:1046A000007E004E000000000000000000001C0022
:1046B0003E403360336033603360336033603FE0EB
:1046C0003FC0000000003FFF3FFF30C0306030605F
:1046D0003060306038E01FC00F80000000000F80A5
:1046E0001FC038E03060306030603060306018C02B
:1046F0000880000000000F801FC038E0306030608C
:10470000306030E030C03FFF3FFF000000000F800E
:104710001FC03BE03360336033603360336013C0ED
:1047200001800000000000C000C03FFC3FFE00C749
:1047300000C300C30003000000000000000003806D
:10474000C7C0CEE0CC60CC60CC60CC60E6607FE0DF
:104750003FE0000000003FFF3FFF00C0006000603E
:10476000006000E03FC03F8000000000000000004B
:104770000000300030603FEC3FEC300030000000C3
:10478000000000000000000000006000E000C00029
:10479000C060FFEC7FEC00000000000000000000A3
:1047A0003FFF3FFF030007800FC01CE03860300070
:1047B00000000000000000000000300030033FFF58
:1047C0003FFF3000300000000000000000003FE02C
:1047D0003FC000E000E03FC03FC000E000E03FC05D
:1047E0003F800000000000003FE03FE0006000600C
:1047F0000060006000E03FC03F80000000000F80CC
:104800001FC038E0306030603060306038E01FC07A
:104810000F8000000000FFE0FFE00C6018601860EF
:10482000186018601CE00FC00780000000000780BF
:104830000FC01CE018601860186018600C60FFE082
:10484000FFE00000000000003FE03FE000C000602B
:1048500000600060006000E000C00000000011C0C7
:1048600033E033603360336033603F601E400000EC
:10487000000000000000006000601FFE3FFE30608E
:1048800030603060300000000000000000000FE0E9
:104890001FE03800300030003000300018003FE0EA
:1048A0003FE000000000006001E007801E003800CB
:1048B00038001E00078001E000600000000007E0F3
:1048C0001FE038001C000FE00FE01C0038001FE064
:1048D00007E000000000306038E01DC00F800700D6
:1048E0000F801DC038E030600000000000000000B4
:1048F000006081E0E7807E001E00078001E000602C
:10490000000000000000306038603C6036603360BA
:1049100031E030E030603020000000000000000096
:10492000008001C01FFC3F7E7007600360036003CE
:1049300000000000000000000000000000003FBF79
:104940003FBF000000000000000000000000000069
:1049500060036003600370073F7E1FFC01C000809E
:1049600000000000000000100018000C0004000C03
:10497000001800100018000C0004000000000F00D8
:104980000F800CC00C600C300C300C600CC00F8021
:104990000F000000000001F007FCCE0EDC07F8035A
:1049A000F80318031C070E1E061C000000000FE091
:1049B0001FE0380C300C30003000300C180C3FE099
:1049C0003FE0000000000F801FC03BE03360336811
:1049D000336C3366336213C00380000000001C0098
:1049E0003E403368336C33663366336C33683FE084
:1049F0003FC0000000001C003E40336C336C33604D
:104A00003360336C336C3FE03FC0000000001C009B
:104A10003E40336033623366336C336833603FE06B
:104A20003FC0000000001C003E4033603364336A26
:104A3000336A336433603FE03FC0000000000F8002
:104A40001FC0B8E0B060F060F060306038E018C0BF
:104A50000880000000000F801FC033E8336C33660D
:104A60003366336C336813C00380000000000F808E
:104A70001FC033EC336C33603360336C336C13C062
:104A80000380000000000F801FC033E033623366F4
:104A9000336C3368336013C00380000000000000F3
:104AA0000000300C306C3FE03FEC300C3000000078
:104AB000000000000000000000003008306C3FE6FD
:104AC0003FE6300C3008000000000000000000004D
:104AD0000000300030623FE63FEC3008300000005C
:104AE00000000000000038003E000F830DE30C784A
:104AF0000C780DE30F833E00380000000000380002
:104B00003E000F800DE20C750C750DE20F803E002B
:104B10003800000000003FF83FF831983198319C90
:104B2000319E319B319930183018000000001C80F4
:104B30003EC0224022401FC03F802240224033C05E
:104B40001180000000003C003F8007F0067C061F3B
:104B50003FFF3FFF30C330C33003000000000F8031
:104B60001FC038E8306C30663066306C38E81FC0E3
:104B70000F80000000000F801FC038EC306C3060E8
:104B80003060306C38EC1FC00F80000000000F80D8
:104B90001FC038E030623066306C306838E01FC0CB
:104BA0000F80000000000FE01FE03808300C3006D6
:104BB0003006300C18083FE03FE0000000000FE036
:104BC0001FE0380030023006300C300818003FE09B
:104BD0003FE0000000000000006081ECE78C7E00F8
:104BE0001E00078C01EC00600000000000000FE0D8
:104BF0001FF0383B301B30183018301B383B1FF08B
:104C00000FE0000000000FE01FE0380C300C300017
:104C10003000300C180C3FE03FE0000000002F8017
:104C20003FC018E03C603660336031E038C01FE0C0
:104C30000FA000000000000018001C801FF80BFCF3
:104C4000188C188C181C18180800000000002FF091
:104C50003FF8181C3E0C378C31EC307C38181FFCA8
:104C60000FF400000000000004100630036001C0D3
:104C700001C00360063004100000000000000000C6
:104C80003000708060807FFE3FFF00830087000659
:104C90000000000000001C003E4033603368336CAD
:104CA0003366336233603FE03FC000000000000025
:104CB0000000300030683FEC3FE63002300000007A
:104CC0000000000000000F801FC038E03068306C2A
:104CD0003066306238E01FC00F80000000000FE037
:104CE0001FE038003008300C3006300218003FE07A
:104CF0003FE00000000000003FE03FE8006C00647F
:104D0000006C006800EC3FC43F80000000003FF8EA
:104D10003FF8007200E301C1038307020E033FF96D
:104D20003FF800000000007006FA06DB06DB06DB39
:104D300006DB06DB06DB06FF00FE00000000003C91
:104D4000067E06E706C306C306C306C306E7067E5D
:104D5000003C000000000E001F003B8031C030FB13
:104D6000307B300038001E000E000000000007F00D
:104D70000FF81C1C1BEC1BEC18AC1BEC1B4C1C1C7C
:104D80000FF807F000180018001800180018001895
:104D900000180018001803F803F80000000000488D
:104DA000047C067C0340018000C019601D30171090
:104DB0001200000000000048047C067C03400180D3
:104DC00006C0076004301F101F0000000000000034
:104DD000000000000F803FF33FF30F800000000051
:104DE000000000000000008001C0036002200000FD
:104DF000008001C0036002200000000000000220CB
:104E0000036001C0008000000220036001C0008038
:104E10000000000055550000AAAA000055550000EA
:104E2000AAAA000055550000AAAA0000AAAA555532
:104E3000AAAA5555AAAA5555AAAA5555AAAA55557A
:104E4000AAAA5555AAAAFFFF5555FFFFAAAAFFFF18
:104E50005555FFFFAAAAFFFF5555FFFF00000000B0
:104E6000000000000000FFFFFFFF00000000000046
:104E70000000000001800180018001800180FFFFAF
:104E8000FFFF0000000000000000000000003800EC
:104E90003E000F800DE40C7E0C7B0DE10F803E0088
:104EA00038000000000038003E000F840DE60C7B47
:104EB0000C7B0DE60F843E00380000000000380037
:104EC0003E000F800DE10C7B0C7E0DE40F803E0058
:104ED00038000000000007F00FF81C1C19CC1BEC78
:104EE0001A2C1B6C194C1C1C0FF807F006C006C0CE
:104EF000FEFFFEFF0000FFFFFFFF000000000000BC
:104F00000000000000000000FFFFFFFF0000FFFFA7
:104F1000FFFF0000000000000000000006C006C007
:104F2000FEC0FEC000C0FFC0FFC0000000000000C7
:104F30000000000006C006C006FF06FF060007FFCF
:104F400007FF00000000000000000000000000005B
:104F500003E007F00E383FFE3FFE0C180E38063017
:104F600000000000000000030A0F0A3C0AF03FC0E6
:104F70003FC00AF00A3C0A0F0003000001800180D4
:104F8000018001800180FF80FF80000000000000A0
:104F9000000000000000000000000000000001FF11
:104FA00001FF01800180018001800180018001807A
:104FB00001800180018001FF01FF018001800180EB
:104FC0000180018001800180018001800180FF80DB
:104FD000FF800180018001800180018000000000CD
:104FE000000000000000FFFFFFFF01800180018042
:104FF00001800180018001800180018001800180A9
:105000000180018001800180018001800180018098
:10501000018001800180FFFFFFFF0180018001808E
:105020000180018000001C003E403368336C336413
:10503000336C3368336C3FE43FC00000000038003D
:105040003E000F820DE30C790C7B0DE20F833E01D5
:10505000380000000000000007FF07FF060006FF01
:1050600006FF06C006C006C006C006C0000000005D
:10507000FFC0FFC000C0FEC0FEC006C006C006C024
:1050800006C006C006C006C006FF06FF060006FFF3
:1050900006FF06C006C006C006C006C006C006C0A1
:1050A000FEC0FEC000C0FEC0FEC006C006C006C0F6
:1050B00006C006C000000000FFFFFFFF0000FEFF6B
:1050C000FEFF06C006C006C006C006C006C006C079
:1050D00006C006C006C006C006C006C006C006C0A0
:1050E00006C006C006C006C0FEFFFEFF0000FEFFB1
:1050F000FEFF06C006C006C006C006C000001BF6C4
:105100001FFE06180C0C0C0C0C0C0C0C06181FFEC9
:105110001BF600000000000000001C783EFC33CCB1
:10512000338C3F0C1E18000000000000000000C07F
:105130003FFF3FFF30C33003300338071C0E0FFC26
:1051400003F0000000003FF83FF8319C319E319B96
:10515000319B319E319C30183018000000003FF820
:105160003FF8319B319B31983198319B319B3018FE
:105170003018000000003FF83FF83199319B319E14
:10518000319C319831983018301800000000000030
:10519000000000000000007E007E00000000000013
:1051A00000000000000000000000301830183FFC34
:1051B0003FFE301B3019000000000000000000001E
:1051C0000000301C301E3FFB3FFB301E301C000037
:1051D00000000000000000000000301B301B3FF802
:1051E0003FF8301B301B00000000000001800180F0
:1051F00001800180018001FF01FF0000000000002C
:105200000000000000000000000000000000FF801F
:10521000FF8001800180018001800180FFFFFFFF8E
:10522000FFFFFFFFFFFFFFFFFFFFFFFFFFFFFFFF8E
:10523000FFFFFFFFFF00FF00FF00FF00FF00FF0078
:10524000FF00FF00FF00FF00FF00FF000000000064
:105250000000000000003FBF3FBF00000000000052
:10526000000000000000000000003019301B3FFE6D
:105270003FFC3018301800000000000000FF00FF65
:1052800000FF00FF00FF00FF00FF00FF00FF00FF26
:1052900000FF00FF00000FE01FF038383018301C0E
:1052A000301E301B38391FF00FE0000000000000F6
:1052B000FFC0FFE021302110211033303FE01EC03D
:1052C0000000000000000FE01FF0383C301E301BD3
:1052D000301B301E383C1FF00FE0000000000FE0D4
:1052E0001FF03839301B301E301C301838381FF092
:1052F0000FE0000000000F801FC838EC3064306CF5
:105300003068306C38E41FC00F80000000000FE0F0
:105310001FF0383A301B3019301B301A383B1FF160
:105320000FE000000000FFF0FFF00E000C000C008A
:105330000C0006000FF00FF000000000000000005D
:10534000300C3FFC3FFC366C0660066007E003C093
:10535000000000000000000030033FFF3FFF361B4D
:105360000618061807F803F000000000000007F810
:105370001FF83800300030043006300338011FF8C1
:1053800007F80000000007F81FF838043006300363
:105390003003300638041FF807F80000000007F853
:1053A0001FF83801300330063004300038001FF891
:1053B00007F8000000000000006081E0E7807E1038
:1053C0001E18078C01E400600000000000000008C7
:1053D0000018003000603FC43FC600630031001871
:1053E0000008000000000000000000000000000CA9
:1053F000000C000C000C0000000000000000000089
:10540000000000000004000600030001000000008E
:105410000000000000000000000000C000C000C04C
:1054200000C000C000C0000000000000000000003C
:10543000000018C018C01BF01BF018C018C00000F6
:105440000000000000000000000006C006C006C00A
:1054500006C006C006C000000000000000000044B6
:105460000454067C0328018006C0076004301F1026
:105470001F00000000000038007C00C600823FFED4
:105480003FFE00023FFE3FFE000200000000000061
:1054900008DC19FE11221122112211221FE60EC46E
:1054A00000000000000000000180018001800DB0BC
:1054B0000DB00180018001800000000000000000AC
:1054C000000000400080008000C000C0000000001C
:1054D00000000000000000000000001E003F00333C
:1054E0000033003F001E000000000000000000002C
:1054F000018003C0018000000000018003C0018022
:10550000000000000000000000000000000001801A
:1055100003C0018000000000000000000000000047
:105520000002001F001F000000000000000000003B
:105530000000000000000000001100150015001F11
:10554000000A000000000000000000000000000051
:105550000019001D001500170012000000000000D7
:1055600000000000000000000000000003F003F055
:1055700003F003F000000000000000000000000045
:10558000000000000000000000000000000000001B
:1055900000000000000040004000F001E000E000DA
:1055A000400000003E04E207E207E2073E04C401B7
:1055B0000402F8010000C0032004A00560063004C6
:1055C000780668062004600660062004600660060F
:1055D000C0030000000000000000000088008C01F3
:1055E00050002202FC01220250008C0188000000C1
:1055F00000000000F8002000F8008800840012017C
:105600000202F2029402080208021003A000100134
:10561000F00100000000E00120012007E004800408
:105620008004FE04AA028A028201800180008000B8
:105630008002000000000000A00720002003A0045A
:10564000200320002003A00420032F002800A0072F
:10565000200220052000200720012006200120062E
:10566000000000000000F80308024E02EE024E02A5
:1056700008020802080208024E024E024E02080208
:10568000F80300000000000020002F0024002A0082
:10569000A0072E0222062C0022002C002000000071
:1056A00000000000000040074001400640014406A1
:1056B0005E00400740004007400140060000000037
:1056C0000000000000002000AF072801280620008D
:1056D000000000001C003E002200FE03FE0302004A
:1056E000FE03FE0300026606FE049A049205F2071A
:1056F0006606040080038003800380038003800328
:1057000080030000000088048C05FE07FE078C055E
:105710008804000000001C003E00220022003E0021
:105720001C0000007E004100DE071018DE0741006B
:10573000DE071018DE0741007E00000004000A00AA
:1057400004000000000000020005801C801C800690
:10575000FC0594069404841C801C80040003000053
:105760000000000004000A00E40310041004100408
:105770002002000000002F0024002A002000AE07B5
:10578000240422042C0022002C0000000000000051
:105790000000000000000000000000000000000009
:1057A0000000000000001C007E037E031C000000BF
:1057B0000000000000000E001E00000000001E009F
:1057C0000E0000008800FE03FE038800FE03FE03B7
:1057D0008800000018013C0127072707E401C400E6
:1057E0000000000018039801C00060003003180397
:1057F00000000000EC01FE0332027E03EC01C00356
:1058000060020000000010001E000E0000000000FA
:105810000000000000007000F8008C010603020286
:10582000000000000000020206038C01F800700076
:10583000000000002000A800F80070007000F800D0
:10584000A8002000000020002000F800F800200040
:105850002000000000000004000700030003000017
:105860000000000020002000200020002000200078
:1058700020000000000000000003000300030000FF
:105880000000000000038001C0006000300018002C
:105890000C000000FC01FE03C20272021A02FE03A9
:1058A000FC01000008020802FC03FE0300020002E3
:1058B000000000000C038E03C20262023E031C03C0
:1058C000000000000401060322022202FE03DC01A4
:1058D000000000006000700058004C02FE03FE0350
:1058E000400200003E013E0322022202E203C20106
:1058F00000000000F801FC0326022202E203C001BE
:10590000000000000E000E008203C20362003E0091
:105910001E000000DC01FE0322022202FE03DC0165
:10592000000000001C003E022203E203FE003C00D7
:10593000000000000000000098019801980100009C
:105940000000000000000000980598079803000080
:105950000000000020007000D8008C010603020245
:1059600000000000000050005000500050005000A7
:10597000500000000000020206038C01D8007000F5
:105980002000000004000600620372031E000C00E9
:1059900000000000FC01FE030202720272027E029D
:1059A0007C000000F803FC0346004600FC03F803FB
:1059B000000000000202FE03FE0322022202FE0398
:1059C000DC010000F800FC010603020202028E0363
:1059D0008C0100000202FE03FE0302020603FC012A
:1059E000F80000000202FE03FE03220222027202FD
:1059F000060300000202FE03FE03220222007600DC
:105A00000E000000F800FC01060302024202CE0371
:105A1000CC030000FE03FE0320002000FE03FE0373
:105A20000000000000000202FE03FE03020200006C
:105A300000000000C001C00300020202FE03FE01DC
:105A4000020000000202FE03FE032000F800DE0355
:105A5000060300000202FE03FE03020200028003AE
:105A6000C0030000FE03FE031C0038001C00FE0300
:105A7000FE030000FE03FE0338007000E000FE039A
:105A8000FE030000F800FC01060302020603FC010D
:105A9000F80000000202FE03FE03220222003E0084
:105AA0001C000000F800FC0106018205C607FC0787
:105AB000F80400000202FE03FE0322006200FE035F
:105AC0009C0300009C01BE0322026202CE038C01F3
:105AD0000000000006000202FE03FE0302020600B0
:105AE00000000000FE01FE0300020002FE03FE01B2
:105AF00000000000FE00FE0100030003FE01FE00A6
:105B0000000000007E00FE03800360008003FE03AF
:105B10007E0000008E03DE0370007000DE038E0343
:105B2000000000001E003E02E003E0033E021E00F3
:105B3000000000000E03C603E2023A021E02060342
:105B40008603000000000000FE03FE0302020202C2
:105B5000000000000C00180030006000C000800150
:105B6000000300000000000002020202FE03FE0328
:105B70000000000008000C000600030006000C00F6
:105B800008000000000400040004000400040004F5
:105B900000040004000000000300070004000000EF
:105BA000000000008001D00350025002F001E00329
:105BB000000200000202FE03FE0110021002F003C8
:105BC000E0010000E001F0031002100230032001A8
:105BD00000000000E001F00310021202FE01FE03CB
:105BE00000020000E001F003500250027003600167
:105BF000000000002002FC03FE0322022600040035
:105C000000000000E004F00D10091009E00FF0079B
:105C1000100000000202FE03FE0320001000F0034B
:105C2000E0030000000010021002F603F603000279
:105C3000000200000006000E10081008F60FF6071C
:105C4000000000000202FE03FE034000E000B0037B
:105C500010030000000002020202FE03FE03000225
:105C600000020000F003F0031000F0011000F00348
:105C7000E0030000F003F00310001000F003E00365
:105C800000000000E001F00310021002F003E00148
:105C9000000000001008F00FE00F100A1002F003DF
:105CA000E0010000E001F0031002100AE00FF00F25
:105CB000100800001002F003F003400230007000F2
